:100000000C94D2000C943B100C9414100C94BA1065
:100010000C94BA100C94BA100C94FA000C94FA00D8
:100020000C94FA000C94FA000C94FA000C94FA0068
:100030000C94FA000C94A30F0C94FA000C94FA00A0
:100040000C94CA0F0C94FA000C9488100C94621053
:100050000C94FA000C94FA000C94FA000C94FA0038
:100060000C94FA000C94FA004453543A002B435475
:100070005A563A002A50535554545A3A002A50536B
:100080004E5749443A00434C4F5345440D0A000D26
:100090000A2B524543454956453A000D0A2B434920
:1000A0005052584745543A00480052494E47004E76
:1000B0004F54205245414459004E4F5420494E530D
:1000C00045525445440053494D2050554B00534927
:1000D0004D2050494E005245414459002B43504950
:1000E0004E3A002B4350494E3F00002B43424154AF
:1000F00043484B3D31002B434C54533D31002B437F
:100100004D45453D30004F4B0D0A004530004F4BEB
:10011000002B444445543D312C302C30004F4B00D3
:100120002B434C49503D31004F4B002B434F4C501B
:100130003D31004F4B004530004552524F520D0AA1
:10014000004F4B000000000000240027002A0000A0
:100150000000080002010000030407000000000086
:10016000000000000000002300260029000000001D
:1001700000250028002B00040404040404040402E5
:100180000202020202030303030303010204081034
:100190002040800102040810200102040810200001
:1001A00032118E1511241FBECFEFD8E0DEBFCDBFB8
:1001B00023E0ACECB1E001C01D92A135B207E1F73C
:1001C00011E0A0E0B1E0EAE6F2E302C005900D9292
:1001D000AC3CB107D9F710E0C1EDD0E004C02197E5
:1001E000FE010E94FD16C03DD107C9F70E94A6126C
:1001F0000C9428190C940000833081F028F481308D
:1002000099F08230A9F008958730A9F08830C9F0BC
:100210008430B1F4809180008F7D03C08091800094
:100220008F7780938000089584B58F7784BD08957B
:1002300084B58F7DFBCF8091B0008F778093B00025
:1002400008958091B0008F7DF9CFCF93DF93282F51
:1002500030E0F901E15BFE4F8491F901E557FE4F73
:10026000D491F901E958FE4FC491CC23A1F081113A
:100270000E94FC00EC2FF0E0EE0FFF1FED59FE4F47
:10028000A591B491EC91ED2381E090E009F480E038
:10029000DF91CF91089580E090E0FACF1F93CF9344
:1002A000DF93282F30E0F901E15BFE4F8491F901E3
:1002B000E557FE4FD491F901E958FE4FC491CC2384
:1002C000A9F0162F81110E94FC00EC2FF0E0EE0F38
:1002D000FF1FE359FE4FA591B4918FB7F894EC91AD
:1002E000111108C0D095DE23DC938FBFDF91CF9131
:1002F0001F910895DE2BF8CFCF93DF9390E0FC01A0
:10030000E557FE4F249189589E4FFC018491882324
:10031000C9F090E0880F991FFC01EB5BFE4FA5919F
:10032000B491FC01E359FE4FC591D49161110DC008
:100330009FB7F8948C91209582238C9388812823F1
:1003400028839FBFDF91CF910895623051F49FB70A
:10035000F8943C91822F809583238C93E8812E2BF7
:10036000EFCF8FB7F894EC912E2B2C938FBFEACF61
:100370003FB7F8948091590290915A02A0915B0284
:10038000B0915C0226B5A89B05C02F3F19F00196DD
:10039000A11DB11D3FBFBA2FA92F982F8827BC01DF
:1003A000CD01620F711D811D911D42E0660F771F07
:1003B000881F991F4A95D1F708958F929F92AF9207
:1003C000BF92CF92DF92EF92FF926B017C010E946D
:1003D000B8014B015C01C114D104E104F104B9F08E
:1003E0000E94B801681979098A099B09683E73401F
:1003F0008105910580F321E0C21AD108E108F108D6
:1004000088EE880E83E0981EA11CB11CE4CFFF90FB
:10041000EF90DF90CF90BF90AF909F908F90089516
:100420002FB7F8946091550270915602809157024F
:10043000909158022FBF0895CF92DF92EF92FF92D2
:10044000CF93DF93EC010E9410026B017C010E94AC
:1004500010026C197D098E099F09683E7340810561
:10046000910578F50E9410026C197D098E099F098B
:10047000683E73408105910588F488819981DC018B
:10048000ED91FC910084F185E02D0995892B31F4E3
:1004900060E070E0CB010E94DD01E4CF88819981AA
:1004A000DC01ED91FC910284F385E02D09950A971A
:1004B00071F681E0DF91CF91FF90EF90DF90CF90C8
:1004C000089580E0F7CF089508950F931F93CF9379
:1004D000DF93EC010E941002688779878A879B87E7
:1004E000E881F9810284F385E02DCE01099597FF1B
:1004F00015C00E941002088519852A853B85601B5E
:10050000710B820B930B0C811D812E813F81601733
:1005100071078207930720F38FEF9FEFDF91CF9151
:100520001F910F910895AF92BF92CF92DF92EF92F9
:10053000FF920F931F93CF93DF936C017B018B018D
:10054000040F151FEB015E01AE18BF08C017D107DD
:1005500059F06991D601ED91FC910190F081E02D67
:10056000C6010995892B79F7C501DF91CF911F91BC
:100570000F91FF90EF90DF90CF90BF90AF900895D4
:10058000FC01538D448D252F30E0842F90E0821B99
:10059000930B541710F0CF96089501970895FC011E
:1005A000918D828D981761F0A28DAE0FBF2FB11D76
:1005B0005D968C91928D9F5F9F73928F90E00895CE
:1005C0008FEF9FEF0895FC01918D828D981731F088
:1005D000828DE80FF11D858D90E008958FEF9FEFDC
:1005E0000895FC01918D228D892F90E0805C9F4FB2
:1005F000821B91098F73992708958FE592E00E94DD
:10060000F10221E0892B09F420E0822F089580E097
:1006100090E0892B29F00E94FD0281110C940000CA
:100620000895FC01A48DA80FB92FB11DA35ABF4F87
:100630002C91848D90E001968F739927848FA689E1
:10064000B7892C93A089B1898C91837080648C9335
:10065000938D848D981306C00288F389E02D8081E4
:100660008F7D80830895EF92FF920F931F93CF9316
:10067000DF93EC0181E0888F9B8D8C8D98131AC0DD
:10068000E889F989808185FF15C09FB7F894EE89C4
:10069000FF896083E889F989808183708064808321
:1006A0009FBF81E090E0DF91CF911F910F91FF906C
:1006B000EF900895F62E0B8D10E00F5F1F4F0F7314
:1006C0001127E02E8C8D8E110CC00FB607FCFACFCF
:1006D000E889F989808185FFF5CFCE010E94110359
:1006E000F1CFEB8DEC0FFD2FF11DE35AFF4FF082A0
:1006F0009FB7F8940B8FEA89FB8980818062CFCF06
:10070000CF93DF93EC01888D8823B9F0AA89BB8948
:10071000E889F9898C9185FD03C0808186FD0DC033
:100720000FB607FCF7CF8C9185FFF2CF808185FF54
:10073000EDCFCE010E941103E9CFDF91CF91089553
:100740000C94B80160913B0270913C0280913D0293
:1007500090913E02089581E080936F000895109279
:100760006F00089581E086BB089508958F929F924F
:10077000AF92BF92CF92DF92EF92FF920F931F93AF
:10078000CF93DF936C014A015B01FC01C385D485E3
:10079000F12CE12C10E000E0209781F1F601968128
:1007A0008B81981724F588899989AA89BB898F3FFD
:1007B0009F4FAF4FBF4FD9F0E881F9810684F7858D
:1007C000E02DB501A401CE01099588859985AA85FA
:1007D000BB85181619061A061B064CF0198E188EC2
:1007E0000115110541F0F701D18FC08F7E010E88F0
:1007F000DF89C02DD1CF7E018E01F9CFC801DF91F5
:10080000CF911F910F91FF90EF90DF90CF90BF900D
:10081000AF909F908F900895089580E0089581E0B3
:100820000895089508950F931F93FC01828181110B
:1008300012C080899189A289B389840F951FA61F50
:10084000B71F84839583A683B783808B918BA28BFC
:10085000B38B81E0828384819581A681B7818C01ED
:100860009D01041B150B260B370BB901A80140870E
:10087000518762877387411551056105704C2CF4CF
:10088000B05E84839583A683B7831F910F910895EB
:100890002091500230915102232BC1F0FC012081A4
:1008A000222359F0209121023091220210822150FE
:1008B00031093093220220932102809121029091EC
:1008C0002202892B19F481E080936F000895209112
:1008D000500230915102232B89F010926F00FC01DD
:1008E000208121110BC021E0208380912102909171
:1008F0002202019690932202809321020895EF92A2
:10090000FF920F931F93CF93DF931F92CDB7DEB764
:100910007C018B011982CE0101960E946704D701E8
:100920001B966D917C911C976115710581F41C9645
:100930001C930E931B97CE0101960E9448040F90C2
:10094000DF91CF911F910F91FF90EF900895F801E3
:100950004381CB01F0E0E0E0DC0113962C9113978A
:1009600024174CF056962D913C91FC012115310530
:1009700021F0C901F1CF3097A9F0D8015596FC9329
:10098000EE9354978689978957969C938E935697A2
:10099000178B068B5696ED91FC91309761F2158B73
:1009A000048BC9CFF801158A148A778B668BDB011B
:1009B00055961C930E935497F70114870387BBCF6A
:1009C00080911902811121C08EE191E090930D0276
:1009D00080930C0210920E0280E880930F02109216
:1009E00011021092100280931202109214021092BF
:1009F000130281E090E0909316028093150210920A
:100A0000180210921702809319028CE092E0089568
:100A10002F923F924F925F926F927F928F929F920E
:100A2000AF92BF92CF92DF92EF92FF920F931F93FC
:100A3000CF93DF931F92CDB7DEB778940E94B801B1
:100A400060933B0270933C0280933D0290933E0280
:100A50000E94E0047C01DC0112968C91882309F449
:100A600048C11982CE0101960E94670481E086BBCD
:100A700080903B0290903C02A0903D02B0903E02DC
:100A80009091330291110AC080922F02909230020D
:100A9000A0923102B09232028093330280912702F9
:100AA000811113C080912F0290913002A0913102E8
:100AB000B09132028093230290932402A0932502E6
:100AC000B093260281E080932702F7018681803867
:100AD00051F40E94B8016093230270932402809322
:100AE000250290932602D701ED91FC910084F185B7
:100AF000E02DB501A401C7010995FC014381DC018A
:100B000030E020E010E000E0312C212C50E0109784
:100B100079F113966C911397C62E062E000CDD0802
:100B2000C416D5062CF10115110501F1F8017381E8
:100B30007617E4F067130FC0408451846284738495
:100B400018968D909D90AD90BC901B978414950441
:100B5000A604B7045CF0322D232D232E322E3A2F1B
:100B60002B2F58960D90BC91A02DD1CF8D01F5CF94
:100B7000D8015896AC9058975996BC905997211423
:100B8000310409F04AC059961C930E935897F70107
:100B900096800115110509F449C0C480D580D8019B
:100BA00013968C91868315830483CE0101960E944F
:100BB0004804D801ED91FC910480F581E02DC80135
:100BC0000995D801ED91FC910284F385E02DC801CF
:100BD00009958823A9F0F80180899189A289B389B0
:100BE0004485558566857785840F951FA61FB71F99
:100BF00084839583A683B783808B918BA28BB38BE1
:100C0000CE0101960E946704D7011596DC92CE9220
:100C1000149716969C92C50170CFF101A08EB18EEB
:100C200059961C930E9358975C01B1CFB0E89B1274
:100C30005CC00E94B80100912F02109130022091F7
:100C40003102309132022B013C01401A510A620AF2
:100C5000730A009123021091240220912502309101
:100C600026024B015C01801A910AA20AB30A609322
:100C70002F02709330028093310290933202F70179
:100C8000418552851FE0149F9001159F300D11245E
:100C9000C301B201620F731F811D911D20E1422E1D
:100CA000512C612C712CA30192010E94CA16D7010C
:100CB0001A963C932E93199717962D913C91129F5B
:100CC000C001139F900D1124A5019401280F391F15
:100CD000411D511DCA01B901A30192010E94CA160A
:100CE000D70118963C932E931797CE0101960E9438
:100CF00048040F90DF91CF911F910F91FF90EF90DB
:100D0000DF90CF90BF90AF909F908F907F906F902B
:100D10005F904F903F902F900895DF92EF92FF9257
:100D20000F931F93CF93DF9300D0CDB7DEB77C0135
:100D30008B011A82CE0102960E9467041982CE01AD
:100D400001960E946704F801808D918DDD24D39473
:100D50000817190759F40E94E004DD24D394FC011C
:100D6000848195818017910709F0D12CCE010196DD
:100D70000E944804DD2049F0F8018381F701838354
:100D8000CE0102960E944804FFCFF7018385948527
:100D9000F801A689B789248935898017910741F41C
:100DA000F701B487A38755963C932E93549708C0B8
:100DB000F901B78BA68BF801A689B789109799F727
:100DC000CE0102960E9448040F900F90DF91CF91C0
:100DD0001F910F91FF90EF90DF90089520914102B5
:100DE000309142022817390771F490913F028091A7
:100DF0004002981741F0E0913F02F0E0E453FE4FCB
:100E0000808190E008958FEF9FEF08950895EF920D
:100E1000FF920F931F93CF93DF93DC015C96ED90CD
:100E2000FC905D97E114F10479F481E090E0139671
:100E30009C938E93129790E080E0DF91CF911F9169
:100E40000F91FF90EF9008955196ED91FC9152977C
:100E500050968C915097982F90950FB75E962C9145
:100E60005E97122F127021FD6095F8942081112356
:100E700019F1282B2083E7012197F1F728E0462F6D
:100E800050E0308160FF1AC0382B3083E701219792
:100E9000F1F7BA0175956795215089F7112381F013
:100EA0008081892380830FBF5C968D919C910197EF
:100EB000F1F781E090E0C1CF2923DCCF3923E5CFE2
:100EC0009081892BEFCF2091410230914202281767
:100ED000390771F48091400220913F0290E0805CDC
:100EE0009F4F821B910960E470E00E949416089560
:100EF00090E080E00895209141023091420228174D
:100F00003907B9F490913F0280914002981789F017
:100F1000E0913F02F0E0E453FE4F808120913F02D8
:100F200030E02F5F3F4F2F73332720933F0290E035
:100F300008958FEF9FEF089590E080E00895DC0121
:100F40005A96ED91FC910994CF93DF93EC0180E5E3
:100F500091E0998388830E94E004DC01ED91FC918B
:100F60000680F781E02DBE01DF91CF910994DC016D
:100F70001296ED91FC9113979185662311F081E013
:100F8000982714969C93692F84810C944E01CF93DB
:100F9000DF93C0915202D091530281E08D830E9471
:100FA000100264547D4F8F4F9F4F6A877B878C87D9
:100FB0009D87EA81FB818581823089F0833061F4ED
:100FC000E99881E090E0880F991FFC01EA5FFE4FED
:100FD00084E692E091838083DF91CF910895E89831
:100FE00090E080E0F0CFDC0115961C9215971296E8
:100FF000ED91FC918581823081F08330D9F487ECCA
:1010000097E0909309018093080180916900837FA4
:10101000886080936900E99A089587EC97E090933F
:10102000070180930601809169008C7F8260809324
:101030006900E89A08950F931F93CF93DF93C091AF
:101040005202D09153028D818823A9F10E9410028F
:101050000A851B852C853D85EA81FB8106171707CC
:101060002807390718F5168181E01827168367814C
:10107000CE010E94B7071E821F821886198681E062
:1010800090E09B8B8A8B112341F0EA81FB81818563
:101090008C83CE010E94F3070EC060E08DE00E94B9
:1010A0004E0160E0CE010E94B707F3CF85810E9418
:1010B0002501019771F3C0915202D0915302EA8148
:1010C000FB818681882319F10E9410020E851F85FD
:1010D000288939890617170728073907C0F40E949D
:1010E0001002645D7E4F8F4F9F4F6E877F87888B86
:1010F000998B8DE00E94250160E0892B09F461E065
:101100008DE0DF91CF911F910F910C944E01DF91F3
:10111000CF911F910F9108950E94E518FB01019056
:101120000020E9F73197AF01461B570BDC01ED9129
:10113000FC910280F381E02D09948F929F92AF92EF
:10114000BF92EF92FF920F931F93CF93DF93CDB790
:10115000DEB7A1970FB6F894DEBF0FBECDBF7C01FE
:10116000FA01CB0119A2223008F42AE08E010F5DAA
:101170001F4F822E912CB12CA12CBF01A5019401EF
:101180000E94A816F901CA016A300CF5605DD80109
:101190006E938D01232B242B252B79F790E080E093
:1011A000109721F0BD01C7010E948E08A1960FB6CD
:1011B000F894DEBF0FBECDBFDF91CF911F910F918D
:1011C000FF90EF90BF90AF909F908F900895695CD3
:1011D000DECF8F929F92AF92BF92CF92DF92EF922B
:1011E000FF920F931F93CF93DF937C01EB016C0170
:1011F00082E0C80ED11C4701E5E08E0E911C10E084
:1012000000E0F60141916F0150E070E060E02AE0FB
:10121000CE010E949D085C01E881F9810190F08176
:10122000E02D6EE2CE0109958A0D9B1D080F191F56
:10123000C814D90431F7F701458150E070E060E04F
:101240002AE0CE010E949D08800F911FDF91CF916F
:101250001F910F91FF90EF90DF90CF90BF90AF90D4
:101260009F908F900895AF92BF92CF92DF92EF92AE
:10127000FF920F931F93CF93DF93EC015B01EC84FC
:10128000FD846CE871E0888199810E948E08C88095
:10129000D9808501F8016491662361F0D601ED9152
:1012A000FC910190F081E02DC60109950F5F1F4F61
:1012B000892B81F7E114F10429F0B7018881998124
:1012C0000E948E0888819981DC01ED91FC91068055
:1012D000F781E02D099560E070E0CB01DF91CF91BF
:1012E0001F910F91FF90EF90DF90CF90BF90AF9044
:1012F0000C94DD01AF92BF92CF92DF92EF92FF92FA
:101300000F931F93CF93DF936B01EA01FB0144819D
:1013100055814115510561F1FC012481358121156B
:10132000310531F12417350718F1C217D30710F032
:10133000E9012197FC0100811181C801AA24AA9426
:10134000BB24BA947801EC0EFD1EE816F906A0F055
:10135000F601608171810E940E19009769F09C016D
:10136000201B310BC217D30708F059010196EDCFAE
:10137000AA24AA94BB24BA94C501DF91CF911F91EE
:101380000F91FF90EF90DF90CF90BF90AF900895B6
:10139000FC0124813581FB014481558124173507E7
:1013A000A0F0FC0180819181009779F0FB016081C0
:1013B00071816115710549F0241B350B820F931F54
:1013C0000E94FE1821E0892B09F020E0822F089569
:1013D0000F931F93CF93DF93EC018881998100973E
:1013E00059F02A813B812617370730F081E0DF91E1
:1013F000CF911F910F9108958B016F5F7F4F0E94D6
:101400002818009759F0998388831B830A832C81BD
:101410003D81232B59F7FC011082E8CF80E0E7CF14
:10142000EF92FF920F931F93CF93DF9341155105D6
:10143000B1F07B01EC010C811D81040F151FB80177
:101440000E94E809882361F0288139818C819D817F
:10145000B701820F931F0E9407191D830C8381E03F
:10146000DF91CF911F910F91FF90EF900895CF934F
:10147000DF93EC0188819981009711F00E949F17FA
:10148000198218821D821C821B821A82DF91CF91E1
:101490000895EF92FF920F931F93CF93DF93EC0188
:1014A0007B01198218821B821A821D821C82FB0119
:1014B00001900020E9F731978F01061B170BB80147
:1014C0000E94E809811109C0CE01DF91CF911F91DF
:1014D0000F91FF90EF900C94370A1D830C83B70196
:1014E00088819981DF91CF911F910F91FF90EF90AB
:1014F0000C940719EF92FF920F931F93CF93DF93F2
:101500008C017B01EB0109900020E9F72197C61BB4
:10151000D70BBE010E94E809811109C0C801DF9103
:10152000CF911F910F91FF90EF900C94370AF80123
:10153000D583C483B70180819181DF91CF911F91C1
:101540000F91FF90EF900C940719AF92BF92CF923A
:10155000DF92EF92FF920F931F93CF93DF936C0173
:101560005B017A0189012417350720F48F2D790159
:10157000042F182F61E971E0C6010E94490AD501C4
:101580001496CD91DC91EC16FD06E0F40C171D07C6
:1015900008F4E801D501ED91FC911197EC0FFD1FC6
:1015A000108110826D917C916E0D7F1DC6016115B9
:1015B0007105A1F00E947A0AF50180819181C80F1E
:1015C000D91F1883C601DF91CF911F910F91FF9012
:1015D000EF90DF90CF90BF90AF9008950E94370AB0
:1015E000EBCFFC0180819181009711F00C949F1743
:1015F00008950C949F170C949F17CF93DF93EC01E1
:101600000E94A407CE01DF91CF910C949F17EF9217
:10161000FF920F931F93CF93DF93EC0119821882EF
:101620001B821A821D821C826115710509F18B01D2
:10163000CB010E94F6157C01BC01CE010E94E80995
:10164000811109C0CE01DF91CF911F910F91FF90C1
:10165000EF900C94370AFD82EC82B8018881998161
:10166000DF91CF911F910F91FF90EF900C94EF15A8
:10167000DF91CF911F910F91FF90EF9008958F927E
:101680009F92AF92BF92CF92DF92EF92FF920F9311
:101690001F93CF93DF9300D000D000D01F92CDB71F
:1016A000DEB7FC0180809180CE0101967C0110E0C4
:1016B00000E05C01C62E660FDD08C4010E946502D1
:1016C00097FD0BC08C159D0541F0F70181937F01BB
:1016D0000F5F1F4F0730110581F7C801019706976B
:1016E000D0F4F501E00FF11F1082C5010E94AA1588
:1016F00027960FB6F894DEBF0FBECDBFDF91CF9116
:101700001F910F91FF90EF90DF90CF90BF90AF901F
:101710009F908F90089581EF98EDEACF2F923F929E
:101720004F925F926F927F928F929F92AF92BF92F1
:10173000CF92DF92EF92FF920F931F93CF93DF939D
:10174000CDB7DEB768970FB6F894DEBF0FBECDBF3A
:101750001C012A013B01388B2F871A8B098BFC8ACD
:10176000EB8ADE8ACD8AB88EAF8A61E971E0CE015C
:1017700009960E94490A60E470E0CE0109960E9431
:10178000E8090E9410024B015C018E010F5F1F4FA0
:1017900060E070E0CB010E94DD01D1018D919C9150
:1017A000DC01ED91FC910084F185E02D099518167E
:1017B00019060CF0A4C160E070E0CB010E94DD01CD
:1017C000F10180819181DC01ED91FC910284F3852E
:1017D000E02D099518160CF789831A8241E050E034
:1017E000B801CE0109960E94100AEF85F88930975A
:1017F00079F0BF01C8010E94070BB801CE0109961C
:101800000E94C809F82EC8010E94F10AF110EAC12D
:1018100089899A89009779F0BC01C8010E94070B59
:10182000B801CE0109960E94C809F82EC8010E948D
:10183000F10AF110D9C1AB89BC89109779F0BD01CB
:10184000C8010E94070BB801CE0109960E94C80981
:10185000F82EC8010E94F10AF110C8C1ED89FE8975
:10186000309779F0BF01C8010E94070BB801CE0183
:1018700009960E94C809F82EC8010E94F10AF110C9
:10188000B7C18F89988D009779F0BC01C8010E947B
:10189000070BB801CE0109960E94C809F82EC801AD
:1018A0000E94F10AF110A6C16BE970E0C8010E9424
:1018B000070BB801CE0109960E94C809F82EC8018D
:1018C0000E94F10AFF20C1F16CE2C1010E943F0BAE
:1018D000F82E91E0F9121BC06AE0C1010E943F0B93
:1018E000853070F4E82F880FFF0B3196EE0FFF1F45
:1018F000E20DF31D0190F081E02D309709F0F68A9A
:1019000061E971E0CE0109960E947A0A46CF4AE069
:10191000B8018F2DFF0C990B0E94FF15F801019063
:101920000020E9F73197AF01401B510BB801CE0100
:1019300009960E94100A31CF6FE870E0C8010E943A
:10194000070BB801CE0109960E94C809F82EC801FC
:101950000E94F10AFF2021F16CE2C1010E943F0BBD
:10196000F82E6AE0C1010E943F0BA4E0AF1540F2DF
:10197000EF2DFF0CFF0B3196EE0FFF1FE20DF31D55
:101980000190F081E02D309709F4BACFB1E0B68B29
:10199000813024E0920708F0B3CF908B8787B0CFD7
:1019A00066E870E0C8010E94070BB801CE010996F5
:1019B0000E94C809F82EC8010E94F10AFF2009F40C
:1019C00058C0ED84FE8488E0E81AF1086FE871E001
:1019D000C8010E94490AA701B801CE0109960E94D8
:1019E0007A09C82EC8010E94F10A0C2C000CDD08EF
:1019F00092E0C90ED11C8D859E85C816D90670F45B
:101A0000E984FA846CE270E0C7018C0D9D1D0E9490
:101A1000F3189C012E193F09892B11F42FEF3FEF8A
:101A2000022E000C330BA601BE01675F7F4FC80179
:101A30000E94A50A89819A81F12C009719F00E94D1
:101A4000C815F62EC8010E94F10AA4E0AF1508F4EB
:101A500057CFEF2DFF0CFF0B3196EE0FFF1FE20D5E
:101A6000F31D0190F081E02D309709F449CF158ADC
:101A700047CF6DE770E0C8010E94070BB801CE01A7
:101A800009960E94C809F82EC8010E94F10AFF2099
:101A900021F0C1010E941C0233CF64E770E0C8014D
:101AA0000E94070BB801CE0109960E94C809F82EC2
:101AB000C8010E94F10AF110ECCF6DE670E0C80198
:101AC0000E94070BB801CE0109960E94C809F82EA2
:101AD000C8010E94F10AF110DCCF68E670E0C8018D
:101AE0000E94070BB801CE0109960E94C809F82E82
:101AF000C8010E94F10AFF2009F44FCECACF0E940C
:101B00001002681979098A099B096415750586050B
:101B1000970508F43DCEC984DA84C114D10431F0AC
:101B20000D851E8576010115110531F561E971E01C
:101B3000CE0109960E947A0A10E0CE0109960E9411
:101B4000F10A812F68960FB6F894DEBF0FBECDBFA5
:101B5000DF91CF911F910F91FF90EF90DF90CF9089
:101B6000BF90AF909F908F907F906F905F904F90BD
:101B70003F902F90089575015701BFEFAB1ABB0A34
:101B8000F7018081082E000C990B0E944116892BC9
:101B900091F7015011090C0D1D1DD8018C91082ED3
:101BA000000C990B0E944116892B31F00E151F0570
:101BB00018F001501109F1CFA8014F5F5F4F4E1986
:101BC0005F095E874D87CE14DF0420F4B701C6019C
:101BD0000E94EA18E985FA858D859E85E80FF91F30
:101BE0001082A4CF11E0A9CF12E0A7CF13E0A5CFB8
:101BF00014E0A3CF15E0A1CF8F929F92AF92BF9236
:101C0000CF92DF92EF92FF920F931F93CF93DF93C8
:101C1000CDB7DEB762970FB6F894DEBF0FBECDBF6B
:101C20008090520290905302D40152968D919C91D3
:101C3000892B01F50E941002F4010681178120858D
:101C400031850617170728073907A0F40280F381AA
:101C5000E02D6781C4010E94B707D40116961D923A
:101C60001D921D921C92199781E090E053969C93CF
:101C70008E935297B12CA12CD12CC12CF12CE12C9C
:101C800009E311E02AEA30E044E650E060E070E069
:101C9000F401808191810E948E0B813009F024C172
:101CA000E0915202F09153020190F081E02D008109
:101CB000118161E971E0CE010D960E94490AC801C7
:101CC0000E94650297FD0CC089831A8241E050E0B2
:101CD000BE016F5F7F4FCE010D960E94100AEFCFBD
:101CE00062E971E0CE0101960E94490A49895A8948
:101CF0008D819E81481B590BBE016F5F7F4FCE01C6
:101D00000D960E947A099C0150E040E0BE01635F9D
:101D10007F4FCE0107960E94A50A8D859E8500976C
:101D200009F499C06F8178856115710509F491C036
:101D30004F8558892B853C854217530708F489C085
:101D40000E9407198B859C859A8B898B1C861B8624
:101D5000CE0107960E94F10ACE0101960E94F10A77
:101D600066E971E0CE0101960E94490A89899A8943
:101D7000892B09F481C00D851E8569817A81C8018E
:101D80000E940E19009709F477C0801B910B08E0A0
:101D9000080FCE0101960E94F10A083008F4A0C095
:101DA00010E06FE971E0CE0101960E94490A89892D
:101DB0009A890817190770F4ED84FE8469817A8185
:101DC000C701800F911F0E940E199C012E193F0917
:101DD000892B11F42FEF3FEFA801BE01635F7F4F06
:101DE000CE0107960E94A50ACE0101960E94F10A33
:101DF0000091520210915302D80112968D909C903E
:101E0000F401B280CF80D884F12CE12CEB1408F0DF
:101E10005CC0C701880F991FD401ED91FC91E80FB8
:101E2000F91FB601808191810E94FE18BFEFEB1A65
:101E3000FB0A892B59F7D40116968C9181111FC08A
:101E4000D80114966C9181E06827C8010E94B707F9
:101E50003CC00E949F178F8198859E878D878985BA
:101E60009A85988B8F878B859C859A8B898B188612
:101E70001F821A8619866ACF8FEF9FEF88CFF401F1
:101E8000678181E06827C8010E94B7070E9410029D
:101E9000AB01BC01D8011296ED91FC91E08528EED2
:101EA00033E0E29FC001E39F900D1124092E000C46
:101EB000AA0BBB0B840F951FA61FB71FF8018683C3
:101EC0009783A087B187138A128A68EA70E0F801C5
:101ED000808191810E943309CE0107960E94F10A08
:101EE000CE010D960E94F10A62960FB6F894DEBFFD
:101EF0000FBECDBFDF91CF911F910F91FF90EF905B
:101F0000DF90CF90BF90AF909F908F900895AF9249
:101F1000BF92CF92DF92EF92FF920F931F935701E0
:101F2000680179018A019B0148EE53E060E070E0AE
:101F30000E948E0B1F910F91FF90EF90DF90CF903A
:101F4000BF90AF9008951F920F920FB60F92112479
:101F50002F933F934F935F936F937F938F939F93B1
:101F6000AF93BF93EF93FF93E0915D02F0915E0218
:101F70000995FF91EF91BF91AF919F918F917F91C3
:101F80006F915F914F913F912F910F900FBE0F90E6
:101F90001F9018951F920F920FB60F9211242F9336
:101FA0003F938F939F93AF93BF93809155029091EE
:101FB0005602A0915702B09158023091540223E08A
:101FC000230F2D3758F50196A11DB11D2093540202
:101FD0008093550290935602A0935702B0935802F3
:101FE0008091590290915A02A0915B02B0915C02DB
:101FF0000196A11DB11D8093590290935A02A0939E
:102000005B02B0935C02BF91AF919F918F913F9122
:102010002F910F900FBE0F901F90189526E8230F59
:102020000296A11DB11DD2CF1F920F920FB60F9233
:1020300011242F933F934F935F936F937F938F93CD
:102040009F93AF93BF93EF93FF93E0910801F091BB
:1020500009010995FF91EF91BF91AF919F918F91E8
:102060007F916F915F914F913F912F910F900FBE94
:102070000F901F9018951F920F920FB60F92112478
:102080002F933F934F935F936F937F938F939F9380
:10209000AF93BF93EF93FF93E0910601F091070197
:1020A0000995FF91EF91BF91AF919F918F917F9192
:1020B0006F915F914F913F912F910F900FBE0F90B5
:1020C0001F9018951F920F920FB60F9211242F9305
:1020D0003F934F935F936F937F938F939F93AF93B0
:1020E000BF93EF93FF938FE592E00E941103FF915E
:1020F000EF91BF91AF919F918F917F916F915F9180
:102100004F913F912F910F900FBE0F901F901895F8
:102110001F920F920FB60F9211242F938F939F93BC
:10212000EF93FF93E0916F02F09170028081E09154
:102130007502F091760282FD1BC090818091780239
:102140008F5F8F7320917902821741F0E0917802BE
:10215000F0E0E15AFD4F958F80937802FF91EF9167
:102160009F918F912F910F900FBE0F901F901895F8
:102170008081F4CF1F920F920FB60F9211242F93EC
:102180003F934F935F936F937F938F939F93AF93FF
:10219000BF93EF93FF93E0914102F0914202309799
:1021A00049F0A685B7858585968D91FF14C09C91D1
:1021B0008923A1F4FF91EF91BF91AF919F918F91EE
:1021C0007F916F915F914F913F912F910F900FBE33
:1021D0000F901F9018959C91892361F7A389B4896A
:1021E0009C918589809589238C938689978901970D
:1021F000F1F7608D718DA685B785558538E020E0B3
:10220000CB010197F1F7822F90E095958795282FC4
:102210004C91452309F02068315091F7868D81FD5E
:1022200020958091400290E001968F73992730911C
:102230003F02381799F0A0914002B0E0A453BE4F7E
:102240002C9380934002828D938D0197F1F7A3899F
:10225000B4898C919589892B8C93ACCF868D8160C4
:10226000868FF1CFCF92DF92FF920F931F93CF9380
:10227000DF93109262021092610288EE93E0A0E078
:10228000B0E08093630290936402A0936502B093E0
:1022900066022EE331E03093600220935F0225EC6A
:1022A00030E030936C0220936B0224EC30E03093EA
:1022B0006E0220936D0220EC30E030937002209388
:1022C0006F0221EC30E0309372022093710222EC15
:1022D00030E0309374022093730226EC30E03093A8
:1022E0007602209375021092780210927902109271
:1022F0007A0210927B022AE831E030934203209365
:10230000410310924303109244031092450310922C
:102310004603109225031092240380932603909382
:102320002703A0932803B093290388E791E09093B3
:1023300023038093220310923903109238031092E2
:102340003B0310923A0310923D0310923C0310920B
:102350003F0310923E03609140036E7F6D7F609358
:1023600040036695617081E0682784E00E944E0119
:1023700061E084E00E947C01EFE8F1E0E491E09309
:102380003203EBE7F1E0E491F0E0EE0FFF1FE359D9
:10239000FE4F85919491909334038093330360E0D2
:1023A00083E00E947C018091400381FD04C061E0D4
:1023B00083E00E944E0183E080932E03EEE8F1E07B
:1023C000E491E0932F03EAE7F1E0E491F0E0EE0F0F
:1023D000FF1FED59FE4F85919491909331038093A7
:1023E000300382E293E090931503809314038FE807
:1023F00091E09093210380932003E6E1F3E08AE0EB
:10240000DF011D928A95E9F7FF24F394F09200030F
:102410001092010381E090E090930F0380930E03EC
:102420008CE190E00E940317EC0190E5C92E91E049
:10243000D92ED982C8821A821B821C821D821E82DA
:102440001F82188619861A861B8684E690E0A0E013
:10245000B0E08C879D87AE87BF87188A198A1A8A51
:102460001B8A1D8A1C8A1F8A1E8AD98FC88F0E94C8
:10247000E004DC01ED91FC910480F581E02DBE01CA
:10248000099504E611E0198308838CEF9DE09B8F8A
:102490008A8FD0931103C09310038CE190E00E94C7
:1024A0000317EC01D982C8821A82FB821C821D822A
:1024B0001E821F82188619861A861B8680EA96E875
:1024C000A1E0B0E08C879D87AE87BF87188A198A04
:1024D0001A8A1B8A1D8A1C8A1F8A1E8AD98FC88F56
:1024E0000E94E004DC01ED91FC910480F581E02D77
:1024F000BE010995198308838BE198E09B8F8A8F31
:10250000D0931303C093120384E193E09093FD02F0
:102510008093FC028AE091E09093FF028093FE0298
:102520008AE891E09093480380934703109249030F
:1025300010924A0310924B0310924C03DF91CF91FB
:102540001F910F91FF90DF90CF900895CF93DF936D
:102550001F92CDB7DEB7789484B5826084BD84B510
:10256000816084BD85B5826085BD85B5816085BD8E
:1025700080916E00816080936E0010928100809146
:1025800081008260809381008091810081608093CE
:102590008100809180008160809380008091B100F3
:1025A00084608093B1008091B00081608093B0001E
:1025B00080917A00846080937A0080917A008260B2
:1025C00080937A0080917A00816080937A00809174
:1025D0007A00806880937A001092C100E0916F02C7
:1025E000F091700282E08083E0916B02F0916C02C6
:1025F0001082E0916D02F0916E0280E18083109272
:102600007702E0917302F091740286E08083E0919A
:102610007102F0917202808180618083E091710289
:10262000F0917202808188608083E0917102F09164
:102630007202808180688083E0917102F091720261
:1026400080818F7D808310923D0310923C03109215
:102650003B0310923A0310923903109238038DE92C
:1026600091E090933F0380933E0390912E03963127
:1026700008F047C02DEB30E0309339032093380346
:102680002BE931E030933B0320933A032CE231E015
:1026900030933D0320933C032091680084E0983000
:1026A00048F031E09E3008F430E081E001C0880F4E
:1026B0003A95EAF7822B809368002DE630E0983057
:1026C00050F02BE630E09E3030F02CE630E09631D2
:1026D00010F030E020E03093360320933503292FAB
:1026E00030E0983008F0B7C081E001C0880F9A95BB
:1026F000EAF78093370380913E0390913F0301975F
:10270000F1F780913C0390913D03892B49F1E091D1
:102710004102F091420223E0E232F20709F13097E0
:1027200039F0A389B4899C918589809589238C93FC
:10273000809140038E7F809340031092400210925C
:102740003F0282E293E09093420280934102E09143
:102750003503F0913603808190913703892B808374
:10276000E091FE02F091FF0261E084810E947C0111
:10277000E091FE02F091FF0262E085810E947C01FF
:10278000E091FE02F091FF026681611167818CEF9A
:1027900092E00E94B707E091FE02F091FF0261E033
:1027A00083810E944E01E091FE02F091FF0261E000
:1027B00083810E947C0164E670E080E090E00E94EA
:1027C000DD01E091FE02F091FF0260E083810E9452
:1027D0004E0168EC70E080E090E00E94DD01E09145
:1027E000FE02F091FF0261E083810E944E01809021
:1027F000FC029090FD020E9410022B013C010E94FD
:1028000010026419750986099709603177428105BC
:10281000910508F049C06AEE70E0C4010E943309D6
:10282000B12CA12CD12CC12CF12CE12C09E311E00D
:1028300026E031E048EC50E060E070E0C4010E9426
:102840008E0B813009F4F0C064E670E080E090E027
:102850000E94DD01D4CF9E3040F42850310981E040
:1028600001C0880F2A95EAF744CF2E503109F7CFDF
:102870008FEAE82E80E0F82E09EB10E026EC30E03D
:102880004EEC50E066ED70E0C4010E94870FF12C21
:10289000E12C10E000E030E020E049E351E066E0A8
:1028A00071E0C4010E94870F64E471E08091FC0232
:1028B0009091FD020E943309B12CA12CD12CC12C86
:1028C000F12CE12C09E311E021E431E048EE53E082
:1028D00060E070E08091FC029091FD020E948E0BFE
:1028E00066E371E08091FC029091FD020E94330941
:1028F00023E331E048EE53E060E070E08091FC02B9
:102900009091FD020E948E0B6BE271E08091FC02BF
:102910009091FD020E94330928E231E048EE53E035
:1029200060E070E08091FC029091FD020E948E0BAD
:1029300060E271E08091FC029091FD020E943309F7
:102940002DE131E048EE53E060E070E08091FC0260
:102950009091FD020E948E0B61E171E08091FC027A
:102960009091FD020E9433092EE031E048EE53E0E1
:1029700060E070E08091FC029091FD020E948E0B5D
:102980008CEF92E090935302809352020E94E004F5
:102990008C0180914802811125C08CE291E09093D6
:1029A00047028093460280E180938100109280006C
:1029B00081E08093450220E43FE13093440220937C
:1029C0004302309387002093860091E19093810029
:1029D00028E035E030935E0220935D0280936F0023
:1029E0008093480286E492E09093510280935002D3
:1029F0001982CE0101960E94670481E0F80182836A
:102A0000CE0101960E9448048CEF92E00E94F307E9
:102A100000E010E001151105E9F30E94FD02882392
:102A2000C9F30E940000F6CF6BE071E0C4010E9480
:102A30003309F12CE12C10E000E030E020E049E324
:102A400051E066E071E0C4010E94870F813009F017
:102A50002BCF6EEF70E0C4010E943309F12CE12C02
:102A600010E000E030E020E049E351E066E071E092
:102A7000C4010E94870F66EF70E0C4010E94330911
:102A8000B12CA12CD12CC12C09E311E026E031E0BE
:102A900040E157E260E070E0C4010E948E0B81309B
:102AA00009F002CF6BEE70E0C4010E94330910E020
:102AB00000E030E020E049E351E066E071E0C4016D
:102AC0000E94870F0E9410022B013C010E941002FD
:102AD0006419750986099709603177428105910566
:102AE00008F0E2CE63EE70E0C4010E943309F12CDD
:102AF000E12C10E000E030E020E049E351E06CED33
:102B000070E0C4010E94870F813009F4B1CE68EEF5
:102B100073E080E090E00E94DD01D8CF88E791E08B
:102B2000909323038093220380914102909142026B
:102B30008252934071F4E0913503F0913603908115
:102B400080913703809589238083109242021092EE
:102B500041020895FC0188279927E89421912032A9
:102B6000E9F3293010F02E30C8F32B3241F02D322A
:102B700039F4689404C00E941F16820F911D2191A0
:102B800020532A30C0F31EF4909581959F4F0895ED
:102B90001F93FC0199278827BC01E89411911032FA
:102BA000E9F3193010F01E30C8F31B3251F01D321A
:102BB00049F4689406C00E940A16610F711D811DB8
:102BC000911D119110531A30B0F33EF490958095F9
:102BD000709561957F4F8F4F9F4F1F910895FB0117
:102BE000DC0105900D920020E1F70895FC010590AD
:102BF0000020E9F7809590958E0F9F1F0895BB27C1
:102C00004A3031F4992322F4BDE2909581959F4F8B
:102C10000C942816592F482F372F262F660F771F11
:102C2000881F991F660F771F881F991F620F731FD8
:102C3000841F951F660F771F881F991F08957AE0DC
:102C4000979F902D879F802D910D11240895BB276C
:102C5000FB015527AA27880F991FAA1FA41710F058
:102C6000A41B83955051B9F7A05DAA3308F0A95D64
:102C7000A193009779F7B111B1931192CB010C9404
:102C80004A1691110C945A16803219F089508550C9
:102C9000C8F70895DC01FC01672F71917723E1F7F4
:102CA000329704C07C916D9370836291AE17BF0719
:102CB000C8F308959927882708952F923F924F923D
:102CC0005F926F927F928F929F92AF92BF92CF92BC
:102CD000DF92EF92FF920F931F93CF93DF93CDB7C5
:102CE000DEB7CA1BDB0B0FB6F894DEBF0FBECDBF3D
:102CF00009942A88398848885F846E847D848C840E
:102D00009B84AA84B984C884DF80EE80FD800C8116
:102D10001B81AA81B981CE0FD11D0FB6F894DEBFF9
:102D20000FBECDBFED01089597FB072E16F400945A
:102D300007D077FD09D00E94E91607FC05D03EF4C4
:102D4000909581959F4F0895709561957F4F089557
:102D5000A1E21A2EAA1BBB1BFD010DC0AA1FBB1F9F
:102D6000EE1FFF1FA217B307E407F50720F0A21B11
:102D7000B30BE40BF50B661F771F881F991F1A947E
:102D800069F760957095809590959B01AC01BD01A8
:102D9000CF010895052E97FB1EF400940E94E116C2
:102DA00057FD07D00E94A81607FC03D04EF40C94E0
:102DB000E11650954095309521953F4F4F4F5F4F0D
:102DC000089590958095709561957F4F8F4F9F4F97
:102DD0000895AA1BBB1B51E107C0AA1FBB1FA61762
:102DE000B70710F0A61BB70B881F991F5A95A9F7B4
:102DF00080959095BC01CD010895EE0FFF1F0590C1
:102E0000F491E02D09940F931F93CF93DF938230B9
:102E1000910510F482E090E0E0914F03F0915003AF
:102E200030E020E0B0E0A0E0309799F421153105C2
:102E300009F44AC0281B390B24303105D8F58A81A2
:102E40009B816115710589F1FB0193838283FE01EA
:102E500011C0408151810281138148175907E0F068
:102E60004817590799F4109761F012960C9312972E
:102E700013961C933296CF01DF91CF911F910F9142
:102E8000089500934F0310935003F4CF211531059B
:102E900051F04217530738F0A901DB019A01BD0137
:102EA000DF01F801C1CFEF01F9CF90935003809378
:102EB0004F03CDCFFE01E20FF31F81939193225078
:102EC000310939832883D7CF20914D0330914E03A8
:102ED000232B41F4209116013091170130934E03BA
:102EE00020934D03209114013091150121153105D6
:102EF00041F42DB73EB74091180150911901241BA0
:102F0000350BE0914D03F0914E03E217F307A0F467
:102F10002E1B3F0B2817390778F0AC014E5F5F4F2F
:102F20002417350748F04E0F5F1F50934E03409310
:102F30004D03819391939FCFF0E0E0E09CCFCF933E
:102F4000DF930097E9F0FC01329713821282A0917F
:102F50004F03B0915003ED0130E020E01097A1F451
:102F600020813181820F931F20914D0330914E03B8
:102F70002817390709F061C0F0934E03E0934D0321
:102F8000DF91CF910895EA01CE17DF07E8F54A8176
:102F90005B819E0141155105B1F7E901FB83EA838D
:102FA00049915991C40FD51FEC17FD0761F4808139
:102FB00091810296840F951FE9019983888382810C
:102FC00093819B838A83F0E0E0E012968D919C913F
:102FD00013970097B9F52D913C911197CD01029669
:102FE000820F931F20914D0330914E03281739070C
:102FF00039F6309751F51092500310924F03B09369
:103000004E03A0934D03BCCFD383C2834081518133
:10301000840F951FC817D90761F44E5F5F4F8881F1
:103020009981480F591F518340838A819B819383E3
:1030300082832115310509F0B0CFF0935003E0935E
:103040004F039ECFFD01DC01C0CF13821282D7CF88
:10305000B0E0A0E0EEE2F8E10C945F168C0100977E
:1030600051F4CB010E9403178C01C801CDB7DEB724
:10307000E0E10C947B16FC01E60FF71F9C01225047
:103080003109E217F30708F49DC0D901CD91DC9115
:103090001197C617D70798F0C530D10530F3CE0188
:1030A00004978617970708F3C61BD70B2297C1937F
:1030B000D1936D937C93CF010E949F17D6CF5B0174
:1030C000AC1ABD0A4C018C0E9D1EA0914F03B0910D
:1030D0005003512C412CF12CE12C109731F58091AB
:1030E0004D0390914E038815990509F05CC0461672
:1030F000570608F058C0809114019091150100976F
:1031000041F48DB79EB74091180150911901841B6D
:10311000950BE817F90708F055C0F0934E03E093BC
:103120004D03F90171836083A0CF8D919C9111971C
:1031300012966C90129713967C901397A815B90568
:1031400059F56C0142E0C40ED11CCA14DB0420F115
:10315000AC014A195B09DA011296159780F0628278
:10316000738251834083D9016D937C93E114F10400
:1031700071F0D7011396FC93EE93129776CF2296B7
:103180008C0F9D1FF90191838083F301EFCFF093A2
:103190005003E0934F0369CF4816590608F42C01F9
:1031A0007D01D3019ACFCB010E9403177C010097C8
:1031B00049F0AE01B8010E94EA18C8010E949F17A9
:1031C000870153CF10E000E050CF81E090E0F89409
:1031D0000C942819FB01DC0102C001900D924150B2
:1031E0005040D8F70895FC018191861721F088237B
:1031F000D9F7992708953197CF010895FB01DC0194
:103200008D91019080190110D9F3990B0895FB015C
:10321000DC0101900D920020E1F70895FB0151912E
:103220005523A9F0BF01DC014D9145174111E1F78C
:1032300059F4CD010190002049F04D914015411104
:10324000C9F3FB014111EFCF81E090E001970895B0
:1032500010E0C1EDD0E004C0FE010E94FD162196F1
:0A326000C23DD107C9F7F894FFCF73
:10326A00A201B001BE0164026402000103070C025C
:10327A0000010A00000051038000000000000C0455
:10328A00FB0A7F048D06B60300000000B503F90AA5
:10329A00B203AF03AB03A003A20300000000330391
:1032AA009302C0028003F102CF02E3020000000091
:1032BA00000000008C080D0412040F04110413040A
:1032CA0000000000A407FD0A9F070D0412040F0462
:1032DA001104130400000000070793029C07060765
:1032EA0063077B07EE0600000000E9084154000D61
:1032FA000A000A4F4B002B434C49503A2022002225
:10330A002C002B33383036373931393238303800DF
:10331A002B333830363735373934383633002B3398
:0C332A003830393737323430343031005D
:00000001FF
