:100000000C948B000C94F60B0C94CF0B0C94750C89
:100010000C94750C0C94750C0C94B3000C94B300F8
:100020000C94B3000C94B3000C94B3000C94B30084
:100030000C94B3000C94600B0C94B3000C94B300BC
:100040000C94850B0C94B3000C94430C0C941D0C75
:100050000C94B3000C94B3000C94B3000C94B30054
:100060000C94B3000C94B3004453543A002B435403
:100070005A563A002A50535554545A3A002A50536B
:100080004E5749443A00434C4F5345440D0A000D26
:100090000A2B524543454956453A000D0A2B434920
:1000A0005052584745543A0048004552524F520D5D
:1000B0000A0052494E4700000000080002010000FB
:1000C00003040700000000000000000000000023FF
:1000D000002600290000000000240027002A00005C
:1000E000000000250028002B00040404040404047C
:1000F00004020202020202030303030303010204D7
:100100000810204080010204081020010204081099
:100110002000ED0C280F11241FBECFEFD8E0DEBF6A
:10012000CDBF23E0A6ECB1E001C01D92A531B2071E
:10013000E1F711E0A0E0B1E0E0E6F5E202C00590F1
:100140000D92A63CB107D9F710E0CAE8D0E004C090
:100150002197FE010E947810C938D107C9F70E9483
:10016000930E0C94A3120C940000089590E0FC01EF
:10017000E954FF4F2491FC01E350FF4F3491FC01FF
:10018000E751FF4FE491EE23C9F0222339F02330E9
:1001900001F1A8F4213019F1223029F1F0E0EE0F3D
:1001A000FF1FE152FF4FA591B4918FB7F894EC91E6
:1001B000611126C030953E233C938FBF08952730B0
:1001C000A9F02830C9F0243049F7809180008F7D54
:1001D00003C0809180008F7780938000DFCF84B54B
:1001E0008F7784BDDBCF84B58F7DFBCF8091B0004E
:1001F0008F778093B000D2CF8091B0008F7DF9CF00
:100200003E2BDACF3FB7F89480910F029091100205
:10021000A0911102B091120226B5A89B05C02F3FF4
:1002200019F00196A11DB11D3FBFBA2FA92F982F1C
:100230008827BC01CD01620F711D811D911D42E017
:10024000660F771F881F991F4A95D1F708958F92DF
:100250009F92AF92BF92CF92DF92EF92FF926B018B
:100260007C010E9402014B015C01C114D104E10434
:10027000F104B9F00E940201681979098A099B0901
:10028000683E73408105910580F321E0C21AD108D0
:10029000E108F10888EE880E83E0981EA11CB11CCD
:1002A000E4CFFF90EF90DF90CF90BF90AF909F9002
:1002B0008F9008952FB7F89460910B0270910C0203
:1002C00080910D0290910E022FBF0895CF92DF9280
:1002D000EF92FF92CF93DF93EC010E945A016B01E2
:1002E0007C010E945A016C197D098E099F09683EA4
:1002F00073408105910578F50E945A016C197D09BA
:100300008E099F09683E73408105910588F48881B4
:100310009981DC01ED91FC910084F185E02D099536
:10032000892B31F460E070E0CB010E942701E4CF1B
:1003300088819981DC01ED91FC910284F385E02DA7
:1003400009950A9771F681E0DF91CF91FF90EF90C8
:10035000DF90CF90089580E0F7CF089508950F9330
:100360001F93CF93DF93EC010E945A01688779872E
:100370008A879B87E881F9810284F385E02DCE018D
:10038000099597FF15C00E945A01088519852A858D
:100390003B85601B710B820B930B0C811D812E81A1
:1003A0003F81601771078207930720F38FEF9FEF5C
:1003B000DF91CF911F910F910895AF92BF92CF928D
:1003C000DF92EF92FF920F931F93CF93DF936C0115
:1003D0007B018B01040F151FEB015E01AE18BF08F6
:1003E000C017D10759F06991D601ED91FC910190A8
:1003F000F081E02DC6010995892B79F7C501DF91C0
:10040000CF911F910F91FF90EF90DF90CF90BF9011
:10041000AF900895FC01538D448D252F30E0842F3B
:1004200090E0821B930B541710F0CF96089501971C
:100430000895FC01918D828D981761F0A28DAE0F09
:10044000BF2FB11D5D968C91928D9F5F9F73928F90
:1004500090E008958FEF9FEF0895FC01918D828DBC
:10046000981731F0828DE80FF11D858D90E0089589
:100470008FEF9FEF0895FC01918D228D892F90E0E1
:10048000805C9F4F821B91098F739927089583E1A8
:1004900092E00E943B0221E0892B09F420E0822FA8
:1004A000089580E090E0892B29F00E944702811195
:1004B0000C9400000895FC01A48DA80FB92FB11D64
:1004C000A35ABF4F2C91848D90E001968F7399278A
:1004D000848FA689B7892C93A089B1898C91837068
:1004E00080648C93938D848D981306C00288F38961
:1004F000E02D80818F7D80830895EF92FF920F938E
:100500001F93CF93DF93EC0181E0888F9B8D8C8DBF
:1005100098131AC0E889F989808185FF15C09FB7B3
:10052000F894EE89FF896083E889F9898081837076
:10053000806480839FBF81E090E0DF91CF911F9125
:100540000F91FF90EF900895F62E0B8D10E00F5F46
:100550001F4F0F731127E02E8C8D8E110CC00FB61C
:1005600007FCFACFE889F989808185FFF5CFCE01B4
:100570000E945B02F1CFEB8DEC0FFD2FF11DE35AD2
:10058000FF4FF0829FB7F8940B8FEA89FB89808137
:100590008062CFCFCF93DF93EC01888D8823B9F0B1
:1005A000AA89BB89E889F9898C9185FD03C080817E
:1005B00086FD0DC00FB607FCF7CF8C9185FFF2CFFB
:1005C000808185FFEDCFCE010E945B02E9CFDF91F4
:1005D000CF910895E0EBF2E08EE191E0918380838A
:1005E000128280E8838315821482868310861782A4
:1005F00081E090E092878187148613868093BD0204
:1006000008958F929F92AF92BF92CF92DF92EF9216
:10061000FF920F931F93CF93DF936C014A015B010D
:10062000FC01C385D485F12CE12C10E000E020977B
:1006300081F1F60196818B81981724F58889998933
:10064000AA89BB898F3F9F4FAF4FBF4FD9F0E88139
:10065000F9810684F785E02DB501A401CE01099545
:1006600088859985AA85BB85181619061A061B0662
:100670004CF0198E188E0115110541F0F701D18F3C
:10068000C08F7E010E88DF89C02DD1CF7E018E0103
:10069000F9CFC801DF91CF911F910F91FF90EF909B
:1006A000DF90CF90BF90AF909F908F900895089566
:1006B00080E0089581E00895089508950F931F93B1
:1006C000FC018281811112C080899189A289B3893C
:1006D000840F951FA61FB71F84839583A683B783B6
:1006E000808B918BA28BB38B81E0828384819581F7
:1006F000A681B7818C019D01041B150B260B370BBE
:10070000B901A80140875187628773874115510558
:100710006105704C2CF4B05E84839583A683B78307
:100720001F910F910895089508950F931F93CF93EC
:10073000DF93FB01DC011B960D911C911C970115A9
:10074000110549F41C967C936E931B97DF91CF9112
:100750001F910F91089563819801B0E0A0E0E90135
:100760004B81461744F04E895F89D90141155105E7
:1007700021F09A01F4CF1097A9F0B58BA48B56966F
:100780008D919C915797978B868B5796FC93EE9300
:100790005697A689B7891097C9F25596FC93EE93A0
:1007A0005497D4CF158A148A178B068BD801559687
:1007B000FC93EE935497EC01FC87EB87C7CF0F9324
:1007C0001F93CF93DF938C01EB01888D998D681770
:1007D000790769F48091BD02811102C00E94EA028A
:1007E0008091B4029091B502C817D90721F48B818A
:1007F000E8018B83FFCFF80183859485AE89BF899B
:10080000EC89FD898C179D0741F4E801BC87AB8713
:100810005596FC93EE93549706C0B78BA68BAE8982
:10082000BF891097A9F7DF91CF911F910F9108957C
:1008300020910802309109022817390771F490912C
:10084000070280910602981741F0E0910702F0E05C
:10085000EA53FE4F808190E008958FEF9FEF089557
:100860000895EF92FF920F931F93CF93DF93DC01D4
:100870005C96ED90FC905D97E114F10479F481E0D1
:1008800090E013969C938E93129790E080E0DF9116
:10089000CF911F910F91FF90EF9008955196ED9198
:1008A000FC91529750968C915097982F90950FB736
:1008B0005E962C915E97122F127021FD6095F89430
:1008C0002081112319F1282B2083E7012197F1F7CB
:1008D00028E0462F50E0308160FF1AC0382B30836B
:1008E000E7012197F1F7BA0175956795215089F7CE
:1008F000112381F08081892380830FBF5C968D91C5
:100900009C910197F1F781E090E0C1CF2923DCCFE2
:100910003923E5CF9081892BEFCF209108023091C8
:1009200009022817390771F4809106022091070205
:1009300090E0805C9F4F821B910960E470E00E9410
:100940002E10089590E080E00895209108023091E3
:10095000090228173907B9F490910702809106021D
:10096000981789F0E0910702F0E0EA53FE4F80818A
:100970002091070230E02F5F3F4F2F7333272093E2
:10098000070290E008958FEF9FEF089590E080E0D8
:100990000895DC015A96ED91FC910994CF93DF9371
:1009A000EC018EE391E0998388838091BD028111EF
:1009B00002C00E94EA02BE0180EB92E0DF91CF917B
:1009C0000C94DF030E946012FB0101900020E9F704
:1009D0003197AF01461B570BDC01ED91FC91028072
:1009E000F381E02D09948F929F92AF92BF92EF9284
:1009F000FF920F931F93CF93DF93CDB7DEB7A197ED
:100A00000FB6F894DEBF0FBECDBF7C01FA01CB015B
:100A100019A2223008F42AE08E010F5D1F4F822EAA
:100A2000912CB12CA12CBF01A50194010E94421070
:100A3000F901CA016A300CF5605DD8016E938D0131
:100A4000232B242B252B79F790E080E0109721F0C1
:100A5000BD01C7010E94E404A1960FB6F894DEBF61
:100A60000FBECDBFDF91CF911F910F91FF90EF90FF
:100A7000BF90AF909F908F900895695CDECF8F926A
:100A80009F92AF92BF92CF92DF92EF92FF920F931D
:100A90001F93CF93DF937C01EB016C0182E0C80EC2
:100AA000D11C4701E5E08E0E911C10E000E0F6013C
:100AB00041916F0150E070E060E02AE0CE010E94B9
:100AC000F3045C01E881F9810190F081E02D6EE290
:100AD000CE0109958A0D9B1D080F191FC814D90452
:100AE00031F7F701458150E070E060E02AE0CE0187
:100AF0000E94F304800F911FDF91CF911F910F91FE
:100B0000FF90EF90DF90CF90BF90AF909F908F902D
:100B10000895AF92BF92CF92DF92EF92FF920F9320
:100B20001F93CF93DF936B01EA01FB014481558151
:100B30004115510561F1FC012481358121153105F3
:100B400031F12417350718F1C217D30710F0E90166
:100B50002197FC0100811181C801AA24AA94BB2419
:100B6000BA947801EC0EFD1EE816F906A0F0F60125
:100B7000608171810E948912009769F09C01201B9D
:100B8000310BC217D30708F059010196EDCFAA2403
:100B9000AA94BB24BA94C501DF91CF911F910F9104
:100BA000FF90EF90DF90CF90BF90AF900895FC0141
:100BB00024813581FB014481558124173507A0F03C
:100BC000FC0180819181009779F0FB016081718146
:100BD0006115710549F0241B350B820F931F0E948C
:100BE000791221E0892B09F020E0822F08950F93DC
:100BF0001F93CF93DF93EC0188819981009759F07F
:100C00002A813B812617370730F081E0DF91CF91B1
:100C10001F910F9108958B016F5F7F4F0E94A31169
:100C2000009759F0998388831B830A832C813D8127
:100C3000232B59F7FC011082E8CF80E0E7CFEF9239
:100C4000FF920F931F93CF93DF9341155105B1F09E
:100C50007B01EC010C811D81040F151FB8010E945E
:100C6000F705882361F0288139818C819D81B70146
:100C7000820F931F0E9482121D830C8381E0DF91FB
:100C8000CF911F910F91FF90EF900895CF93DF9335
:100C9000EC0188819981009711F00E941A11198244
:100CA00018821D821C821B821A82DF91CF910895C7
:100CB000EF92FF920F931F93CF93DF938C017B01F1
:100CC000EB0109900020E9F72197C61BD70BBE0165
:100CD0000E94F705811109C0C801DF91CF911F91D2
:100CE0000F91FF90EF900C944606F801D583C483D2
:100CF000B70180819181DF91CF911F910F91FF907A
:100D0000EF900C948212EF92FF920F931F93CF9368
:100D1000DF93EC017B01198218821B821A821D82EB
:100D20001C82FB0101900020E9F731978F01061B1F
:100D3000170BB8010E94F705811109C0CE01DF91A0
:100D4000CF911F910F91FF90EF900C9446061D8359
:100D50000C83B70188819981DF91CF911F910F9109
:100D6000FF90EF900C948212AF92BF92CF92DF92DD
:100D7000EF92FF920F931F93CF93DF936C015B0170
:100D80007A0189012417350720F48F2D7901042F6A
:100D9000182F6CE771E0C6010E948306D5011496F6
:100DA000CD91DC91EC16FD06E0F40C171D0708F45C
:100DB000E801D501ED91FC911197EC0FFD1F108119
:100DC00010826D917C916E0D7F1DC60161157105BC
:100DD000A1F00E945806F50180819181C80FD91FAA
:100DE0001883C601DF91CF911F910F91FF90EF9073
:100DF000DF90CF90BF90AF9008950E944606EBCF52
:100E0000FC0180819181009711F00C941A110895D2
:100E10000C941A11CF93DF93EC010E94CE04CE0103
:100E2000DF91CF910C941A11EF92FF920F931F93C1
:100E3000CF93DF93EC01198218821B821A821D82E4
:100E40001C826115710509F18B01CB010E94900F85
:100E50007C01BC01CE010E94F705811109C0CE01C1
:100E6000DF91CF911F910F91FF90EF900C94460668
:100E7000FD82EC82B80188819981DF91CF911F9129
:100E80000F91FF90EF900C94890FDF91CF911F91FC
:100E90000F91FF90EF9008958F929F92AF92BF9223
:100EA000CF92DF92EF92FF920F931F93CF93DF9336
:100EB00000D000D000D01F92CDB7DEB7FC018080FB
:100EC0009180CE0101967C0110E000E05C01C62E0D
:100ED000660FDD08C4010E94AF0197FD0BC08C15A1
:100EE0009D0541F0F70181937F010F5F1F4F073090
:100EF000110581F7C80101970697D0F4F501E00FBD
:100F0000F11F1082C5010E94440F27960FB6F89476
:100F1000DEBF0FBECDBFDF91CF911F910F91FF902C
:100F2000EF90DF90CF90BF90AF909F908F900895FB
:100F300081EF98EDEACF4F925F926F927F929F92EE
:100F4000AF92BF92CF92DF92EF92FF920F931F93D7
:100F5000CF93DF93CDB7DEB764970FB6F894DEBFBB
:100F60000FBECDBF80910D0090910E00892B51F5E1
:100F70000E945A010091050010910600209107007F
:100F8000309108000617170728073907D8F4E091B1
:100F90000200F091030061858781882311F081E0D0
:100FA000682784810E94B600109205001092060006
:100FB000109207001092080081E090E090930E00DC
:100FC00080930D00E0910200F09103008681882358
:100FD000A1F061E08DE00E94B60068EC70E080E076
:100FE00090E00E94270160E08DE00E94B60068EC6E
:100FF00070E080E090E00E942701E0900000F09017
:1010000001006CE771E0CE0109960E94830660E45E
:1010100070E0CE0109960E94F7050E945A012B014B
:101020003C018E010F5F1F4F9924939460E070E0A4
:10103000CB010E942701D7018D919C91DC01ED919C
:10104000FC910084F185E02D0995181619060CF025
:1010500064C160E070E0CB010E942701F70180814C
:101060009181DC01ED91FC910284F385E02D0995DD
:1010700018160CF789831A8241E050E0B801CE01BE
:1010800009960E941F0662EB70E0C8010E941407D7
:10109000B801CE0109960E94D705D82EC8010E943A
:1010A0000007D110B3C16AEA70E0C8010E941407BA
:1010B000B801CE0109960E94D705D82EC8010E941A
:1010C0000007D110A5C16BE970E0C8010E941407A8
:1010D000B801CE0109960E94D705D82EC8010E94FA
:1010E0000007DD20C1F16CE2C7010E944C07D82E39
:1010F000B1E08B131BC06AE0C7010E944C0785302A
:1011000070F4E82F880FFF0B3196EE0FFF1FEE0DE6
:10111000FF1D0190F081E02D309709F0D68A6CE731
:1011200071E0CE0109960E94580685CF4AE0B801C9
:10113000082E000C990B0E94990FF80101900020D5
:10114000E9F73197AF01401B510BB801CE01099669
:101150000E941F0670CF6FE870E0C8010E9414075C
:10116000B801CE0109960E94D705D82EC8010E9469
:101170000007DD2019F16CE2C7010E944C07D82E50
:101180006AE0C7010E944C07E4E0ED1540F2ED2D46
:10119000DD0CFF0B3196EE0FFF1FEE0DFF1D0190D2
:1011A000F081E02D309709F4BACF968A813024E09F
:1011B000920708F0B4CF908B8787B1CF66E870E0D4
:1011C000C8010E941407B801CE0109960E94D705F4
:1011D000D82EC8010E940007DD2009F458C0CD8434
:1011E000DE8488E0C81AD1086AE771E0C8010E946D
:1011F0008306A601B801CE0109960E948905C82E72
:10120000C8010E9400070C2C000CDD08A2E0CA0EE9
:10121000D11C8D859E85C816D90670F4A984BA8420
:101220006CE270E0C5018C0D9D1D0E946E129C0148
:101230002A193B09892B11F42FEF3FEF022E000CE6
:10124000330BA601BE01675F7F4FC8010E94B40641
:1012500089819A81D12C009719F00E94620FD62EB5
:10126000C8010E940007B4E0BD1508F458CFED2D69
:10127000DD0CFF0B3196EE0FFF1FEE0DFF1D0190F1
:10128000F081E02D309709F44ACF158A48CF6DE7F9
:1012900070E0C8010E941407B801CE0109960E94AF
:1012A000D705D82EC8010E940007DD2021F0C70114
:1012B0000E94660134CF64E770E0C8010E94140701
:1012C000B801CE0109960E94D705D82EC8010E9408
:1012D0000007D110ECCF6DE670E0C8010E94140742
:1012E000B801CE0109960E94D705D82EC8010E94E8
:1012F0000007D110DCCF68E670E0C8010E94140737
:10130000B801CE0109960E94D705D82EC8010E94C7
:101310000007DD2009F48FCECACF0E945A0164195C
:101320007509860997096A3071058105910508F4E8
:101330007DCEC984DA84C114D10431F00D851E85B7
:1013400076010115110561F56CE771E0CE01099692
:101350000E94580610E0CE0109960E940007113045
:1013600009F098C1E0910000F09101000081118125
:101370006CE771E0CE0109960E948306C8010E94C5
:10138000AF0197FD47C089831A8241E050E0BE015A
:101390006F5F7F4FCE0109960E941F06EFCF750148
:1013A0005701EFEFAE1ABE0AD7018C91082E000C40
:1013B000990B0E94DB0F892B91F7015011090C0D3D
:1013C0001D1DF8018081082E000C990B0E94DB0F77
:1013D000892B31F00E151F0518F001501109F1CFBE
:1013E000A8014F5F5F4F4E195F095E874D87CE148E
:1013F000DF0420F4B701C6010E946512E985FA8571
:101400008D859E85E80FF91F10829ECF11E0A3CF36
:1014100012E0A1CF6DE771E0CE0101960E94830634
:101420004D855E858D819E81481B590BBE016F5F86
:101430007F4FCE0109960E9489059C0150E040E053
:10144000BE01675F7F4FCE010F960E94B40689856B
:101450009A85009709F496C06F85788961157105A2
:1014600009F48EC04B855C852B893C894217530754
:1014700008F486C00E9482128B899C899E878D8782
:101480001C8A1B8ACE010F960E940007CE0101968E
:101490000E94000761E871E0CE0101960E94830678
:1014A0008D859E85892B09F47EC009851A85698101
:1014B0007A81C8010E948912009709F474C0801BC8
:1014C000910B08E0080FCE0101960E94000708303A
:1014D00008F4DCC010E06AE871E0CE010F960E94CB
:1014E00083068D859E850817190770F4E984FA84B0
:1014F0006F857889C701800F911F0E9489129C0116
:101500002E193F09892B11F42FEF3FEFA801BE01DF
:10151000675F7F4FCE0101960E94B406CE010F9601
:101520000E9400070091020010910300D80112965A
:10153000BC90C980DA80F12CE12CEB1408F063C078
:10154000C701880F991FD801ED91FC91E80FF91F91
:10155000B601808191810E947912BFEFEB1AFB0ADC
:10156000892B59F7F8018481968191111FC06091F0
:10157000040091E06927609304000E94B60043C014
:101580000E941A118F8598899A87898789899A89F3
:101590009C878B878B899C899E878D87188A1F865D
:1015A0001A8A198A6DCF8FEF9FEF8BCFF801618573
:1015B0009781911102C091E069270E94B6000E94B4
:1015C0005A01AB01BC01E0910200F0910300E085FB
:1015D00028EE33E0E29FC001E39F900D1124092E15
:1015E000000CAA0BBB0B840F951FA61FB71F80937F
:1015F000050090930600A0930700B0930800109296
:101600000E0010920D000091000010910100D80111
:101610001C96CD90DC901D976DE871E08D919C91AA
:101620000E94E404F801A080B18088EAE82E80E0FE
:10163000F82EF7016491662369F0D501ED91FC91D4
:101640000190F081E02DC5010995BFEFEB1AFB0A6F
:10165000892B79F7C114D10431F0B601F8018081EA
:1016600091810E94E404D8018D919C91DC01ED915F
:10167000FC910680F781E02D099560E070E0CB01D8
:101680000E942701CE0101960E940007CE01099613
:101690000E94000764960FB6F894DEBF0FBECDBF60
:1016A000DF91CF911F910F91FF90EF90DF90CF903E
:1016B000BF90AF909F907F906F905F904F900895F4
:1016C0001F920F920FB60F9211242F933F934F93B7
:1016D0005F936F937F938F939F93AF93BF93EF939A
:1016E000FF93F0E0E0E00995FF91EF91BF91AF919A
:1016F0009F918F917F916F915F914F913F912F912A
:101700000F900FBE0F901F9018951F920F920FB65B
:101710000F9211242F933F938F939F93AF93BF9377
:1017200080910B0290910C02A0910D02B0910E02DB
:1017300030910A0223E0230F2D3758F50196A11DA1
:10174000B11D20930A0280930B0290930C02A09388
:101750000D02B0930E0280910F0290911002A091A1
:101760001102B09112020196A11DB11D80930F02CA
:1017700090931002A0931102B0931202BF91AF9107
:101780009F918F913F912F910F900FBE0F901F90BF
:10179000189526E8230F0296A11DB11DD2CF1F92E6
:1017A0000F920FB60F9211242F933F934F935F9395
:1017B0006F937F938F939F93AF93BF93EF93FF9319
:1017C000E0910801F09109010995FF91EF91BF9116
:1017D000AF919F918F917F916F915F914F913F91C9
:1017E0002F910F900FBE0F901F9018951F920F9280
:1017F0000FB60F9211242F933F934F935F936F93E4
:101800007F938F939F93AF93BF93EF93FF93E09159
:101810000601F09107010995FF91EF91BF91AF91FA
:101820009F918F917F916F915F914F913F912F91F8
:101830000F900FBE0F901F9018951F920F920FB62A
:101840000F9211242F933F934F935F936F937F9346
:101850008F939F93AF93BF93EF93FF9383E192E0B6
:101860000E945B02FF91EF91BF91AF919F918F9189
:101870007F916F915F914F913F912F910F900FBE8C
:101880000F901F9018951F920F920FB60F92112470
:101890002F938F939F93EF93FF93E0912302F09107
:1018A00024028081E0912902F0912A0282FD1BC06E
:1018B000908180912C028F5F8F7320912D0282176F
:1018C00041F0E0912C02F0E0ED5EFD4F958F8093AA
:1018D0002C02FF91EF919F918F912F910F900FBE4E
:1018E0000F901F9018958081F4CF1F920F920FB622
:1018F0000F9211242F933F934F935F936F937F9396
:101900008F939F93AF93BF93EF93FF93E091080260
:10191000F0910902309749F0A685B7858585968DA7
:1019200091FF14C09C918923A1F4FF91EF91BF9185
:10193000AF919F918F917F916F915F914F913F9167
:101940002F910F900FBE0F901F9018959C91892397
:1019500061F7A389B4899C918589809589238C93AB
:10196000868997890197F1F7608D718DA685B78576
:10197000558538E020E0CB010197F1F7822F90E008
:1019800095958795282F4C91452309F02068315073
:1019900091F7868D81FD20958091060290E0019659
:1019A0008F73992730910702381799F0A09106029A
:1019B000B0E0AA53BE4F2C9380930602828D938D84
:1019C0000197F1F7A389B4898C919589892B8C9320
:1019D000ACCF868D8160868FF1CF0F931F93CF930D
:1019E000DF93109216021092150288EE93E0A0E0A9
:1019F000B0E08093170290931802A0931902B0935D
:101A00001A022CE231E0309314022093130225ECE9
:101A100030E03093200220931F0224EC30E030931A
:101A200022022093210220EC30E030932402209304
:101A3000230221EC30E0309326022093250222EC91
:101A400030E0309328022093270226EC30E03093D8
:101A50002A022093290210922C0210922D02109239
:101A60002E0210922F0228E731E0309306032093D4
:101A700005031092070310920803109209031092B5
:101A80000A031092E9021092E8028093EA0290930E
:101A9000EB02A093EC02B093ED0286E691E0909306
:101AA000E7028093E6021092FD021092FC0210926F
:101AB000FF021092FE021092010310920003109296
:101AC000030310920203609104036E7F6D7F6093A5
:101AD00004036695617081E0682784E00E94B60087
:101AE00041E051E0FA0164918DEE90E0FC01249117
:101AF000222399F030E0220F331FF901EB52FF4F00
:101B0000A591B491F901E152FF4F259134912FB77E
:101B1000F8943C91632B6C932FBFFA01449140934E
:101B2000F602FC018491E82FF0E0EE0FFF1FE15276
:101B3000FF4F859194919093F8028093F70200E013
:101B400011E0F8012491CCEED0E0FE0184918823CD
:101B5000C9F090E0880F991FFC01EB52FF4FA5914F
:101B6000B491FC01E152FF4F459154913FB7F89475
:101B70009C91822F809598239C93DA019C918923D4
:101B80008C933FBF8091040381FD04C061E083E03A
:101B90000E94B60083E08093F202F8010491009362
:101BA000F302FE01C491EC2FF0E0EE0FFF1FE553AE
:101BB000FF4F859194919093F5028093F40286EE05
:101BC00092E09093D9028093D8028AE791E09093B3
:101BD000E5028093E402EAEDF2E08AE0DF011D9283
:101BE0008A95E9F781E08093C90281E090E09093C3
:101BF000D3028093D2028CE190E00E947E10EC012F
:101C00008EE391E0998388831A821B821C821D8255
:101C10001E821F82188619861A861B8680EA96E81D
:101C2000A1E0B0E08C879D87AE87BF87188A198AAC
:101C30001A8A1B8A1D8A1C8A1F8A1E8AD98FC88FFE
:101C40008091BD02811102C00E94EA02BE0180EBB8
:101C500092E00E94950382E591E0998388838BE965
:101C600097E09B8F8A8FD093D502C093D4028CE1EA
:101C700090E00E947E10EC018EE391E099838883CE
:101C80001A8281E08B831C821D821E821F8218862D
:101C900019861A861B8680EE93E9A4E0B0E08C8753
:101CA0009D87AE87BF87188A198A1A8A1B8A1D8A60
:101CB0001C8A1F8A1E8AD98FC88F8091BD0281110C
:101CC00002C00E94EA02BE0180EB92E00E949503EE
:101CD00082E591E09983888385EB90E09B8F8A8FE2
:101CE000D093D702C093D60288ED92E09093C602BB
:101CF0008093C5028AE091E09093C8028093C70266
:101D000088E791E090930C0380930B0310920D03EE
:101D100010920E0310920F0310921003DF91CF91D7
:101D20001F910F910895789484B5826084BD84B525
:101D3000816084BD85B5826085BD85B5816085BDC6
:101D400080916E00816080936E001092810080917E
:101D50008100826080938100809181008160809306
:101D60008100809180008160809380008091B1002B
:101D700084608093B1008091B00081608093B00056
:101D800080917A00846080937A0080917A008260EA
:101D900080937A0080917A00816080937A008091AC
:101DA0007A00806880937A001092C100E09123024B
:101DB000F091240282E08083E0911F02F0912002E2
:101DC0001082E0912102F091220280E18083109242
:101DD0002B02E0912702F091280286E08083E091B7
:101DE0002502F0912602808180618083E0912502A6
:101DF000F0912602808188608083E0912502F09135
:101E00002602808180688083E0912502F09126027D
:101E100080818F7D8083C0E0D0E060ED77E080E05E
:101E200090E00E94270160E971E083E192E00E9466
:101E3000E4046AE771E083E192E00E94E404209701
:101E400061F30E944702882341F30E940000E5CF1E
:101E500086E691E09093E7028093E6028091080283
:101E600090910902865E924071F4E091F902F0913E
:101E7000FA0290818091FB028095892380831092E1
:101E80000902109208020895FC0188279927E89416
:101E900021912032E9F3293010F02E30C8F32B3293
:101EA00041F02D3239F4689404C00E94B90F820FBA
:101EB000911D219120532A30C0F31EF490958195F5
:101EC0009F4F08951F93FC0199278827BC01E89430
:101ED00011911032E9F3193010F01E30C8F31B32A3
:101EE00051F01D3249F4689406C00E94A40F610F9E
:101EF000711D811D911D119110531A30B0F33EF4E4
:101F000090958095709561957F4F8F4F9F4F1F9152
:101F10000895FB01DC0105900D920020E1F7089582
:101F2000FC0105900020E9F7809590958E0F9F1F8A
:101F30000895BB274A3031F4992322F4BDE29095ED
:101F400081959F4F0C94C20F592F482F372F262F62
:101F5000660F771F881F991F660F771F881F991FAD
:101F6000620F731F841F951F660F771F881F991FAD
:101F700008957AE0979F902D879F802D910D1124D1
:101F80000895BB27FB015527AA27880F991FAA1F71
:101F9000A41710F0A41B83955051B9F7A05DAA3384
:101FA00008F0A95DA193009779F7B111B19311924F
:101FB000CB010C94E40F91110C94F40F803219F0C2
:101FC00089508550C8F70895DC01FC01672F719195
:101FD0007723E1F7329704C07C916D93708362910F
:101FE000AE17BF07C8F308959927882708952F9241
:101FF0003F924F925F926F927F928F929F92AF9299
:10200000BF92CF92DF92EF92FF920F931F93CF93E5
:10201000DF93CDB7DEB7CA1BDB0B0FB6F894DEBF7C
:102020000FBECDBF09942A88398848885F846E84A2
:102030007D848C849B84AA84B984C884DF80EE80EC
:10204000FD800C811B81AA81B981CE0FD11D0FB6F5
:10205000F894DEBF0FBECDBFED01089597FB072EAC
:1020600016F4009407D077FD09D00E94641007FC95
:1020700005D03EF4909581959F4F08957095619598
:102080007F4F0895A1E21A2EAA1BBB1BFD010DC0B4
:10209000AA1FBB1FEE1FFF1FA217B307E407F50718
:1020A00020F0A21BB30BE40BF50B661F771F881FF4
:1020B000991F1A9469F760957095809590959B018A
:1020C000AC01BD01CF010895AA1BBB1B51E107C0A4
:1020D000AA1FBB1FA617B70710F0A61BB70B881FB8
:1020E000991F5A95A9F780959095BC01CD01089547
:1020F000EE0FFF1F0590F491E02D09940F931F93AD
:10210000CF93DF938230910510F482E090E0E0916C
:102110001303F091140330E020E0B0E0A0E030972A
:1021200099F42115310509F44AC0281B390B2430D4
:102130003105D8F58A819B816115710589F1FB0113
:1021400093838283FE0111C04081518102811381FA
:1021500048175907E0F04817590799F4109761F0AC
:1021600012960C93129713961C933296CF01DF911F
:10217000CF911F910F9108950093130310931403AF
:10218000F4CF2115310551F04217530738F0A9015A
:10219000DB019A01BD01DF01F801C1CFEF01F9CFE9
:1021A0009093140380931303CDCFFE01E20FF31F2E
:1021B000819391932250310939832883D7CF20917D
:1021C000110330911203232B41F420911601309119
:1021D00017013093120320931103209114013091C1
:1021E00015012115310541F42DB73EB74091180175
:1021F00050911901241B350BE0911103F09112034A
:10220000E217F307A0F42E1B3F0B2817390778F0CD
:10221000AC014E5F5F4F2417350748F04E0F5F1F2C
:102220005093120340931103819391939FCFF0E059
:10223000E0E09CCFCF93DF930097E9F0FC01329769
:1022400013821282A0911303B0911403ED0130E0C8
:1022500020E01097A1F420813181820F931F2091FB
:102260001103309112032817390709F061C0F09368
:102270001203E0931103DF91CF910895EA01CE1785
:10228000DF07E8F54A815B819E0141155105B1F7F1
:10229000E901FB83EA8349915991C40FD51FEC17DB
:1022A000FD0761F4808191810296840F951FE901F9
:1022B00099838883828193819B838A83F0E0E0E025
:1022C00012968D919C9113970097B9F52D913C91A1
:1022D0001197CD010296820F931F20911103309127
:1022E00012032817390739F6309751F51092140365
:1022F00010921303B0931203A0931103BCCFD383A6
:10230000C28340815181840F951FC817D90761F49A
:102310004E5F5F4F88819981480F591F51834083D9
:102320008A819B81938382832115310509F0B0CF87
:10233000F0931403E09313039ECFFD01DC01C0CFA3
:1023400013821282D7CFB0E0A0E0E9EAF1E10C9469
:10235000F90F8C01009751F4CB010E947E108C0183
:10236000C801CDB7DEB7E0E10C941510FC01E60F13
:10237000F71F9C0122503109E217F30708F49DC0B2
:10238000D901CD91DC911197C617D70798F0C530C8
:10239000D10530F3CE0104978617970708F3C61BC3
:1023A000D70B2297C193D1936D937C93CF010E9459
:1023B0001A11D6CF5B01AC1ABD0A4C018C0E9D1EC2
:1023C000A0911303B0911403512C412CF12CE12C5A
:1023D000109731F58091110390911203881599059A
:1023E00009F05CC04616570608F058C080911401E9
:1023F00090911501009741F48DB79EB74091180157
:1024000050911901841B950BE817F90708F055C086
:10241000F0931203E0931103F90171836083A0CF5D
:102420008D919C91119712966C90129713967C90B7
:102430001397A815B90559F56C0142E0C40ED11CDB
:10244000CA14DB0420F1AC014A195B09DA011296C7
:10245000159780F06282738251834083D9016D9316
:102460007C93E114F10471F0D7011396FC93EE9381
:10247000129776CF22968C0F9D1FF901918380834E
:10248000F301EFCFF0931403E093130369CF4816E1
:10249000590608F42C017D01D3019ACFCB010E948B
:1024A0007E107C01009749F0AE01B8010E946512D0
:1024B000C8010E941A11870153CF10E000E050CFED
:1024C00081E090E0F8940C94A312FB01DC0102C0BF
:1024D00001900D9241505040D8F70895FC01819130
:1024E000861721F08823D9F7992708953197CF01CE
:1024F0000895FB01DC018D91019080190110D9F341
:10250000990B0895FB01DC0101900D920020E1F789
:102510000895FB0151915523A9F0BF01DC014D91B4
:1025200045174111E1F759F4CD010190002049F020
:102530004D9140154111C9F3FB014111EFCF81E0ED
:1025400090E00197089510E0CAE8D0E004C0FE01D1
:102550000E9478102196CB38D107C9F7F894FFCFA5
:102560009C01AA01B801AE01AE01000103070C02F3
:1025700000010A000000150380000000000057035E
:1025800008079503DF030103000000007D02DD0161
:102590000A02CA023B0219022D02000000000000DC
:1025A0000000E20458035D035A035C035E0300006D
:1025B0000000CE040A07C90458035D035A035C03F4
:1025C0005E03000000003104DD01C60430048D0408
:1025D000A5041804000000003F050D0A000A4F4B37
:1025E000002B434C49503A202200222C0041540039
:1025F0003C3C4C4F4F50494E473E3E002B33383009
:10260000363739313932383038002B3338303637B5
:1026100035373934383633002B33383039373732A1
:06262000343034303100BB
:00000001FF
